:100000000C9462000C948A000C948A000C948A0070
:100010000C948A000C948A000C948A000C948A0038
:100020000C948A000C948A000C948A000C948A0028
:100030000C948A000C948A000C948A000C948A0018
:100040000C94EF020C948A000C945F030C94390317
:100050000C948A000C948A000C948A000C948A00F8
:100060000C948A000C948A000000000023002600F3
:10007000290000000008000201000003040700003E
:1000800000000000000000000000250028002B00F8
:1000900000000000240027002A00040404040404D3
:1000A0000404020202020202030303030303010227
:1000B00004081020408001020408102001020408F6
:1000C00010208F0411241FBECFEFD8E0DEBFCDBFBC
:1000D00011E0A0E0B1E0ECECF9E002C005900D9277
:1000E000A034B107D9F721E0A0E4B1E001C01D922E
:1000F000AA3EB207E1F710E0C2E6D0E004C02197C3
:10010000FE010E94DE04C136D107C9F70E949103A7
:100110000C94E4040C940000CF93DF9390E0FC0176
:10012000E255FF4F249186569F4FFC01849188230E
:10013000C1F090E0880F991FFC01E057FF4FC59177
:10014000D491FC01EA57FF4FA591B4919FB7F89461
:100150008881E22FE0958E2388838C91E823EC93AD
:100160009FBFDF91CF91089590E0FC01EE58FF4FC3
:100170002491FC01E255FF4F3491FC01E656FF4FFC
:10018000E491EE23C1F1222339F02330E9F090F419
:10019000213001F1223011F1F0E0EE0FFF1FE8599C
:1001A000FF4FA591B491EC91E32381E090E029F514
:1001B00080E008952730A9F02830C9F0243061F795
:1001C000809180008F7D03C0809180008F77809325
:1001D0008000E2CF84B58F7784BDDECF84B58F7D7C
:1001E000FBCF8091B0008F778093B000D5CF809106
:1001F000B0008F7DF9CF80E090E008953FB7F8948C
:100200008091490190914A01A0914B01B0914C011C
:1002100026B5A89B05C02F3F19F00196A11DB11D61
:100220003FBFBA2FA92F982F8827BC01CD01620F9D
:10023000711D811D911D42E0660F771F881F991F58
:100240004A95D1F708958F929F92AF92BF92CF9225
:10025000DF92EF92FF920E94FE004B015C0186E16B
:10026000C82ED12CE12CF12C0E94FE0068197909CE
:100270008A099B09683E734081059105A8F321E036
:10028000C21AD108E108F10888EE880E83E0981EB2
:10029000A11CB11CC114D104E104F10429F7FF90A1
:1002A000EF90DF90CF90BF90AF909F908F90089588
:1002B000AF92BF92CF92DF92EF92FF920F931F9374
:1002C000CF93DF936C017B018B01040F151FEB01B2
:1002D0005E01AE18BF08C017D10759F06991D60169
:1002E000ED91FC910190F081E02DC6010995892BDB
:1002F00079F7C501DF91CF911F910F91FF90EF909A
:10030000DF90CF90BF90AF900895FC01538D448D46
:10031000252F30E0842F90E0821B930B541710F0B0
:10032000CF96089501970895FC01918D828D9817BD
:1003300061F0A28DAE0FBF2FB11D5D968C91928D95
:100340009F5F9F73928F90E008958FEF9FEF0895C6
:10035000FC01918D828D981731F0828DE80FF11D8F
:10036000858D90E008958FEF9FEF0895FC01918DAA
:10037000228D892F90E0805C9F4F821B91098F73A3
:10038000992708958DE491E00E94B60121E0892B20
:1003900009F420E0822F089580E090E0892B29F075
:1003A0000E94C20181110C9400000895FC01A48DEB
:1003B000A80FB92FB11DA35ABF4F2C91848D90E087
:1003C00001968F739927848FA689B7892C93A0896A
:1003D000B1898C91837080648C93938D848D9813F4
:1003E00006C00288F389E02D80818F7D8083089587
:1003F000EF92FF920F931F93CF93DF93EC0181E075
:10040000888F9B8D8C8D98131AC0E889F98980811B
:1004100085FF15C09FB7F894EE89FF896083E8894E
:10042000F98980818370806480839FBF81E090E040
:10043000DF91CF911F910F91FF90EF900895F62ECD
:100440000B8D10E00F5F1F4F0F731127E02E8C8D67
:100450008E110CC00FB607FCFACFE889F9898081AC
:1004600085FFF5CFCE010E94D601F1CFEB8DEC0FC9
:10047000FD2FF11DE35AFF4FF0829FB7F8940B8FC9
:10048000EA89FB8980818062CFCFCF93DF93EC0133
:10049000888D8823B9F0AA89BB89E889F9898C916C
:1004A00085FD03C0808186FD0DC00FB607FCF7CF28
:1004B0008C9185FFF2CF808185FFEDCFCE010E9428
:1004C000D601E9CFDF91CF910895FC010190002082
:1004D000E9F73197AF01481B590BBC018DE491E05E
:1004E0000C9458018F929F92AF92BF92CF92DF925D
:1004F000EF92FF920F931F93CF93DF93CDB7DEB7A9
:10050000A1970FB6F894DEBF0FBECDBF6C01990F57
:10051000EE08FF08F7FE41C06DE28DE491E00E9415
:10052000F8018C0122273327A9012C193D094E0916
:100530005F0919A2CE0181967C019AE0892E912C47
:10054000A12CB12CCA01B901A50194010E94BC04DF
:10055000605DF70162937F01211531054105510569
:1005600089F790E080E0309719F0CF010E94650292
:10057000800F911FA1960FB6F894DEBF0FBECDBFBE
:10058000DF91CF911F910F91FF90EF90DF90CF906F
:10059000BF90AF909F908F900895A701960119A2E8
:1005A0008E010F5D1F4F8AE0C82ED12CE12CF12C5B
:1005B000CA01B901A70196010E94BC04605DF8015F
:1005C00062938F01211531054105510589F790E0AE
:1005D00080E0309779F2CF010E946502CBCF1F9265
:1005E0000F920FB60F9211242F933F938F939F93E7
:1005F000AF93BF938091450190914601A09147012F
:10060000B09148013091440123E0230F2D3758F574
:100610000196A11DB11D2093440180934501909343
:100620004601A0934701B093480180914901909100
:100630004A01A0914B01B0914C010196A11DB11D41
:100640008093490190934A01A0934B01B0934C01D0
:10065000BF91AF919F918F913F912F910F900FBEBE
:100660000F901F90189526E8230F0296A11DB11D2B
:10067000D2CF1F920F920FB60F9211242F933F9358
:100680004F935F936F937F938F939F93AF93BF939A
:10069000EF93FF938DE491E00E94D601FF91EF91DB
:1006A000BF91AF919F918F917F916F915F914F918A
:1006B0003F912F910F900FBE0F901F9018951F9292
:1006C0000F920FB60F9211242F938F939F93EF9356
:1006D000FF93E0915D01F0915E018081E091630103
:1006E000F091640182FD1BC09081809166018F5F53
:1006F0008F7320916701821741F0E0916601F0E06D
:10070000E35BFE4F958F80936601FF91EF919F9180
:100710008F912F910F900FBE0F901F901895808191
:10072000F4CF789484B5826084BD84B5816084BD43
:1007300085B5826085BD85B5816085BD80916E007F
:10074000816080936E0010928100809181008260B0
:1007500080938100809181008160809381008091ED
:1007600080008160809380008091B10084608093DC
:10077000B1008091B00081608093B00080917A00D8
:10078000846080937A0080917A00826080937A00FE
:1007900080917A00816080937A0080917A008068ED
:1007A00080937A001092C10083E00E948C0084E064
:1007B0000E948C0085E00E948C0086E00E948C00E4
:1007C00087E00E948C0088E00E948C00E0915D012F
:1007D000F0915E0182E08083E0915901F0915A012D
:1007E0001082E0915B01F0915C018FEC80831092AC
:1007F0006501E0916101F091620186E08083E09102
:100800005F01F0916001808180618083E0915F01F0
:10081000F0916001808188608083E0915F01F091B8
:100820006001808180688083E0915F01F0916001C8
:1008300080818F7D808382E191E00E94650288E261
:1008400091E00E9465028BE291E00E94650288E2DD
:1008500091E00E9465020E94230107E010E060E041
:10086000E62E60E0F62E83E00E94B400EC0184E006
:100870000E94B400880F991FC80FD91F85E00E94FD
:10088000B400880F991F880F991F8C0F9D1F980126
:10089000281B390B309343012093420186E00E94CC
:1008A000B400EC0187E00E94B400880F991FC80FC4
:1008B000D91F88E00E94B400880F991F880F991FE4
:1008C0008C0F9D1F9801281B390B309341012093F9
:1008D00040018CE391E00E94650280914201909179
:1008E00043010E9472028EE391E00E9465028091B2
:1008F0004001909141010E94720288E291E00E94C1
:1009000065020E942301E114F10409F4ACCF0E94B6
:10091000C201882309F4A7CF0E940000A4CFEDE410
:10092000F1E01382128288EE93E0A0E0B0E08483CD
:100930009583A683B78384E091E09183808385ECDF
:1009400090E09587848784EC90E09787868780EC99
:1009500090E0918B808B81EC90E0938B828B82EC8A
:1009600090E0958B848B86EC90E0978B868B118E34
:10097000128E138E148E0895A1E21A2EAA1BBB1B91
:10098000FD010DC0AA1FBB1FEE1FFF1FA217B3075B
:10099000E407F50720F0A21BB30BE40BF50B661F71
:1009A000771F881F991F1A9469F760957095809535
:1009B00090959B01AC01BD01CF010895EE0FFF1F83
:0C09C0000590F491E02D0994F894FFCF0D
:1009CC0000000000F801580185014502B6019401B0
:1009DC00A8014865616470686F6E6520536F756E11
:1009EC0064205261646172000D0A00416E647927C3
:1009FC007320536F66747761726573004C005200FC
:00000001FF
