:100000000C941A030C9442030C9442030C94420384
:100010000C9442030C9442030C9442030C9442034C
:100020000C9442030C9442030C9442030C9442033C
:100030000C9442030C9442030C9442030C9442032C
:100040000C940A130C9442030C947A130C945413DA
:100050000C9442030C9442030C9442030C9442030C
:100060000C94AC130C944203EF03038002CF030003
:10007000C130ED0464031281E803850078CB0539B3
:100080002C003402F70120EA020000C00123C10164
:1000900010C5023E28C701863601483701003A01E3
:1000A00055B1020018B603088227F20100260101AB
:1000B000E00F0F312B0C0E084EF1370710030E091D
:1000C00000E10F000E1403110731C148080F0C3175
:1000D000360F118029800000000000003E5B4F5B5E
:1000E0003E3E6B4F6B3E1C3E7C3E1C183C7E3C18DB
:1000F0001C577D571C1C5E7F5E1C00183C1800FFBF
:10010000E7C3E7FF0018241800FFE7DBE7FF3048EC
:100110003A060E2629792926407F050507407F05E6
:10012000253F5A3CE73C5A7F3E1C1C08081C1C3EDD
:100130007F14227F22145F5F005F5F06097F017FCB
:10014000006689956A606060606094A2FFA294086E
:10015000047E040810207E201008082A1C08081CB1
:100160002A08081E101010100C1E0C1E0C30383EF1
:100170003830060E3E0E06000000000000005F0052
:10018000000007000700147F147F14242A7F2A121E
:100190002313086462364956205000080703000004
:1001A0001C2241000041221C002A1C7F1C2A080836
:1001B0003E08080080703000080808080800006049
:1001C000600020100804023E5149453E00427F4035
:1001D0000072494949462141494D331814127F1094
:1001E00027454545393C4A494931412111090736DE
:1001F00049494936464949291E000014000000407B
:100200003400000008142241141414141400412274
:10021000140802015909063E415D594E7C12111223
:100220007C7F494949363E414141227F4141413E1F
:100230007F494949417F090909013E414151737F85
:100240000808087F00417F41002040413F017F08AE
:100250001422417F404040407F021C027F7F0408FF
:10026000107F3E4141413E7F090909063E4151212F
:100270005E7F09192946264949493203017F010356
:100280003F4040403F1F2040201F3F4038403F63D9
:100290001408146303047804036159494D43007F33
:1002A0004141410204081020004141417F04020104
:1002B00002044040404040000307080020545478A6
:1002C000407F284444383844444428384444287FF4
:1002D000385454541800087E090218A4A49C787F4E
:1002E0000804047800447D40002040403D007F1019
:1002F00028440000417F40007C047804787C080496
:1003000004783844444438FC182424181824241849
:10031000FC7C08040408485454542404043F442436
:100320003C4040207C1C2040201C3C4030403C4451
:10033000281028444C9090907C4464544C4400080D
:10034000364100000077000000413608000201023B
:1003500004023C2623263C1EA1A161123A40402003
:100360007A3854545559215555794122545478427C
:10037000215554784020545579400C1E5272123940
:1003800055555559395454545939555454580000F9
:10039000457C410002457D420001457C407D1211B3
:1003A000127DF0282528F07C545545002054547CBB
:1003B000547C0A097F4932494949323A4444443A13
:1003C000324A4848303A4141217A3A424020780046
:1003D0009DA0A07D3D4242423D3D4040403D3C24E9
:1003E000FF2424487E4943662B2FFC2F2BFF09292D
:1003F000F620C0887E090320545479410000447DD2
:10040000413048484A32384040227A007A0A0A721B
:100410007D0D19317D2629292F28262929292630C5
:10042000484D4020380808080808080808382F10E8
:10043000C8ACBA2F102834FA00007B000008142A38
:10044000142222142A14085500550055AA55AA55FD
:10045000AAFF55FF55FF000000FF00101010FF001D
:10046000141414FF001010FF00FF1010F010F0140F
:100470001414FC001414F700FF0000FF00FF141414
:10048000F404FC141417101F10101F101F14141460
:100490001F00101010F0000000001F101010101F9F
:1004A00010101010F010000000FF101010101010AD
:1004B000101010FF10000000FF140000FF00FF00EC
:1004C000001F10170000FC04F41414171017141464
:1004D000F404F40000FF00F714141414141414F7B7
:1004E00000F7141414171410101F101F141414F410
:1004F000141010F010F000001F101F0000001F1457
:10050000000000FC140000F010F01010FF10FF14A9
:100510001414FF141010101F00000000F010FFFF53
:10052000FFFFFFF0F0F0F0F0FFFFFF000000000021
:10053000FFFF0F0F0F0F0F3844443844FC4A4A4A5C
:10054000347E02020606027E027E02635549416342
:100550003844443C04407E201E2006027E0202995C
:10056000A5E7A5991C2A492A1C4C7201724C304AF5
:100570004D4D303048784830BC625A463D3E49497E
:1005800049007E0101017E2A2A2A2A2A44445F4426
:100590004440514A444040444A51400000FF010356
:1005A000E080FF000008086B6B0836123624360620
:1005B0000F090F060000181800000010100030404E
:1005C000FF0101001F01011E00191D1712003C3C14
:1005D0003C3C000000000000000000240027002A2E
:1005E0000000000000230026002900000000080091
:1005F00002010000030407000000000000000001E9
:1006000002040810204080010204081020010204A6
:1006100008102000000000250028002B000404041E
:10062000040404040402020202020203030303039B
:100630000300C71411241FBECFEFD8E0DEBFCDBF2B
:1006400011E0A0E0B1E0E6E2F2E302C005900D9215
:10065000AE37B107D9F722E0AEE7B1E001C01D9295
:10066000AA3EB207E1F713E0CAE1D3E004C0219744
:10067000FE010E940619C931D107C9F70E949415DD
:100680000C9411190C940000833081F028F481300F
:1006900099F08230A9F008958730A9F08830C9F028
:1006A0008430B1F4809180008F7D03C08091800000
:1006B0008F7780938000089584B58F7784BD0895E7
:1006C00084B58F7DFBCF8091B0008F778093B00091
:1006D00008958091B0008F7DF9CFCF93DF93282FBD
:1006E00030E0F901E551FA4F8491F901E150FA4FF8
:1006F000D491F901E35EF94FC491CC23A1F08111AB
:100700000E944403EC2FF0E0EE0FFF1FEF51FA4F71
:10071000A591B491EC91ED2381E090E009F480E0A3
:10072000DF91CF91089580E090E0FACF1F93CF93AF
:10073000DF93282F30E0F901E551FA4F8491F90158
:10074000E150FA4FD491F901E35EF94FC491CC2303
:10075000A9F0162F81110E944403EC2FF0E0EE0F58
:10076000FF1FED5EF94FA591B4918FB7F894EC910E
:10077000111108C0D095DE23DC938FBFDF91CF919C
:100780001F910895DE2BF8CFCF93DF9390E0FC010B
:10079000E150FA4F2491835E994FFC0184918823A4
:1007A000D1F090E0880F991FFC01E952FA4FA59112
:1007B000B491FC01ED5EF94FC591D49161110EC069
:1007C0009FB7F8948C91E22FE0958E238C9328812B
:1007D000E223E8839FBFDF91CF9108958FB7F8940C
:1007E000EC91E22BEC938FBFF6CF3FB7F89480915A
:1007F000050290910602A0910702B091080226B569
:10080000A89B05C02F3F19F00196A11DB11D3FBF48
:10081000BA2FA92F982F8827BC01CD01620F711D17
:10082000811D911D42E0660F771F881F991F4A9511
:10083000D1F708958F929F92AF92BF92CF92DF929D
:10084000EF92FF924B015C010E94F5036B017C016A
:100850000E94F5036C197D098E099F09683E73405B
:1008600081059105A8F321E0821A9108A108B10839
:1008700088EEC80E83E0D81EE11CF11C811491049F
:10088000A104B10429F7FF90EF90DF90CF90BF90C3
:10089000AF909F908F900895AF92BF92CF92DF92CA
:1008A000EF92FF920F931F93CF93DF936C017B0125
:1008B0008B01040F151FEB015E01AE18BF08C017B6
:1008C000D10759F06991D601ED91FC910190F08129
:1008D000E02DC6010995892B79F7C501DF91CF91EC
:1008E0001F910F91FF90EF90DF90CF90BF90AF904E
:1008F0000895FC01538D448D252F30E0842F90E026
:10090000821B930B541710F0CF960895019708950A
:10091000FC01918D828D981761F0A28DAE0FBF2FD3
:10092000B11D5D968C91928D9F5F9F73928F90E029
:1009300008958FEF9FEF0895FC01918D828D981798
:1009400031F0828DE80FF11D858D90E008958FEFD5
:100950009FEF0895FC01918D228D892F90E0805C9E
:100960009F4F821B91098F739927089589E092E028
:100970000E94AA0421E0892B09F420E0822F089527
:1009800080E090E0892B29F00E94B60481110C943C
:1009900000000895FC01A48DA80FB92FB11DA35A22
:1009A000BF4F2C91848D90E001968F739927848F8F
:1009B000A689B7892C93A089B1898C9183708064B2
:1009C0008C93938D848D981306C00288F389E02D53
:1009D00080818F7D80830895EF92FF920F931F9304
:1009E000CF93DF93EC0181E0888F9B8D8C8D9813E2
:1009F0001AC0E889F989808185FF15C09FB7F894EE
:100A0000EE89FF896083E889F98980818370806439
:100A100080839FBF81E090E0DF91CF911F910F9184
:100A2000FF90EF900895F62E0B8D10E00F5F1F4F93
:100A30000F731127E02E8C8D8E110CC00FB607FCA2
:100A4000FACFE889F989808185FFF5CFCE010E9430
:100A5000CA04F1CFEB8DEC0FFD2FF11DE35AFF4FD0
:100A6000F0829FB7F8940B8FEA89FB8980818062BE
:100A7000CFCFCF93DF93EC01888D8823B9F0AA897B
:100A8000BB89E889F9898C9185FD03C0808186FD49
:100A90000DC00FB607FCF7CF8C9185FFF2CF808198
:100AA00085FFEDCFCE010E94CA04E9CFDF91CF913F
:100AB00008952091A601260F3327331F21323105D7
:100AC000ECF42091CA01FC0190E080E0243069F050
:100AD00082E00895A091A6012191AC014A575E4F92
:100AE000A40FB52FB11D2C930196861798F3809112
:100AF000A601680F6093A60180E0089581E0089543
:100B000008958FEF9FEF08958FEF9FEF08958091E5
:100B10007F0190E09195819591090895CF93DF939E
:100B2000CB01EA01642F0E945905CE01DF91CF91DC
:100B30000895CF93DF931F92CDB7DEB7698361E04D
:100B4000CE0101960E94590581E090E00F90DF915F
:100B5000CF910895FC01A5A1B6A18C9192A58923FE
:100B60008C93A5A1B6A18C9191A5892B8C93089506
:100B70000F931F93CF93DF93EC018B018DA981110C
:100B80000DC01EBD0DB407FEFDCF0EBD0DB407FE9A
:100B9000FDCFDF91CF911F910F9108958130E9F43E
:100BA00080E1E9A1FAA1908117FF14C02DA1922B39
:100BB0009083EBA1FCA190812FA1922B9083EBA1BC
:100BC000FCA1908128A592239083000F111F8150D2
:100BD00041F7DFCF2EA19223EBCFEF8DF8A1108349
:100BE000CE010E94AA05EF8DF8A10083CE01DF910E
:100BF000CF911F910F910C94AA05FC0185A9811139
:100C000005C06EBD0DB407FEFDCF08958130E1F43F
:100C100088E0A1A1B2A19C9167FF13C025A1922BEE
:100C20009C93A3A1B4A19C9127A1922B9C93660FA6
:100C3000A3A1B4A19C9120A592239C93815049F734
:100C4000089526A19223ECCFA78DB0A16C93CF017C
:100C50000C94AA05CF93DF93EC01ED8DFE8D80817E
:100C60009CA989238083CE010E94FD05ED8DFE8D18
:100C700080819BA9892B8083DF91CF910895FC010E
:100C800085A9811104C091A182A19CBD8DBD08954B
:100C90001F93CF93DF93EC01162FE881F981028433
:100CA000F385E02D0995112371F06DADCE010E9401
:100CB0002A06E881F9810688F789E02DCE01DF91C7
:100CC000CF911F9109946EADF1CFAF92BF92CF92A9
:100CD000DF92EF92FF920F931F93CF93DF93EC017C
:100CE00077FD38C088859985681779079CF557FD89
:100CF00031C08A859B854817590764F569017A01D7
:100D00005B01E881F9810284F385E02DCE0109952C
:100D1000E881F98102A4F3A5E02D01E010E021E0D3
:100D200030E0A701B501CE010995B601CE010E94C0
:100D3000B805E881F9810688F789E02DCE01DF91B9
:100D4000CF911F910F91FF90EF90DF90CF90BF90C8
:100D5000AF900994DF91CF911F910F91FF90EF9089
:100D6000DF90CF90BF90AF9008958F929F92AF92F7
:100D7000BF92CF92DF92EF92FF920F931F93CF9388
:100D8000DF93EC0149015701E881F98102A4F3A541
:100D9000E02D09959401D8010E94E8186B017C01AF
:100DA000C114D104E104F10409F490C08DA98111AA
:100DB00015C081E0C81AD108E108F1088FEFC81604
:100DC000D806E806F80609F481C0BEBC0DB407FEDB
:100DD000FDCFAEBC0DB407FEFDCFEBCF813009F0E7
:100DE00045C081E0C81AD108E108F1088FEFC816A4
:100DF000D806E806F80609F469C09B2D88E0E9A149
:100E0000FAA1208197FF2CC03DA1232B2083EBA1C9
:100E1000FCA120813FA1232B2083EBA1FCA12081F9
:100E200038A523232083990F815049F79A2D88E014
:100E3000E9A1FAA1208197FF16C03DA1232B2083B1
:100E4000EBA1FCA120813FA1232B2083EBA1FCA1DE
:100E5000208138A523232083990F815049F7C1CFE2
:100E60003EA12323D3CF3EA12323E9CFBA1016C03E
:100E7000CC0CDD1CEE1CFF1CEF8DF8A1B08281E0D4
:100E8000C81AD108E108F1088FEFC816D806E8069D
:100E9000F806E1F0CE010E94AA05F1CF81E0C81A60
:100EA000D108E108F1088FEFC816D806E806F80661
:100EB00069F0EF8DF8A1B082CE010E94AA05EF8DF6
:100EC000F8A1A082CE010E94AA05E8CFDF91CF91C0
:100ED0001F910F91FF90EF90DF90CF90BF90AF9058
:100EE0009F908F9008958F929F92AF92BF92CF92D2
:100EF000DF92EF92FF920F931F93CF93DF935C01EA
:100F00004B016A01E90177FD52C0DC0118968D9111
:100F10009C91681779070CF04AC0209709F447C0E4
:100F200037FF07C0C9010196C80ED91ED195C195DA
:100F3000D109F50182859385C816D906C4F5A601A5
:100F40004C0F5D1F9A012150310937FD30C0D7FE8B
:100F500003C0EA01D12CC12C281739071CF0EC0181
:100F6000CC19DD09D501ED91FC910284F385E02DCA
:100F7000C501099578018E0121E030E0A601B40198
:100F8000C5010E94B506D501ED91FC910688F7894F
:100F9000E02DC501DF91CF911F910F91FF90EF9050
:100FA000DF90CF90BF90AF909F908F900994DF918A
:100FB000CF911F910F91FF90EF90DF90CF90BF9056
:100FC000AF909F908F9008958F929F92AF92BF9213
:100FD000CF92DF92EF92FF920F931F93CF93DF9305
:100FE0005C016B014A01E90157FD52C0DC011A9610
:100FF0008D919C91481759070CF04AC0209709F42D
:1010000047C037FF07C0C9010196C80ED91ED19548
:10101000C195D109F50180859185C816D906C4F519
:10102000A6014C0F5D1F9A012150310937FD30C0D8
:10103000D7FE03C0EA01D12CC12C281739071CF0B8
:10104000EC01CC19DD09D501ED91FC910284F38509
:10105000E02DC5010995780101E010E09E01A40191
:10106000B601C5010E94B506D501ED91FC91068837
:10107000F789E02DC501DF91CF911F910F91FF906E
:10108000EF90DF90CF90BF90AF909F908F9009949A
:10109000DF91CF911F910F91FF90EF90DF90CF9054
:1010A000BF90AF909F908F9008958F929F92AF9234
:1010B000BF92CF92DF92EF92FF920F931F93CF9345
:1010C000DF934C016B015A01E901209709F46CC0D0
:1010D0000115110509F468C037FF07C0C901019661
:1010E000C80ED91ED195C195D109F401A085B1854D
:1010F000CA16DB060CF058C017FF07C0C8010196DE
:10110000A80EB91E119501951109F40182859385E8
:10111000A816B9060CF048C0F601EC0FFD1FAF0190
:101120004150510957FD40C0B501600F711F9B012F
:101130002150310937FD38C0D7FE03C0EF01D12C53
:10114000C12CB7FE03C08B01B12CA12C4A175B0741
:101150001CF0ED01CC19DD09281739071CF08C01B2
:101160000A191B09D401ED91FC910284F385E02D4D
:10117000C40109959E01A501B601C4010E94B506EE
:10118000D401ED91FC910688F789E02DC401DF912F
:10119000CF911F910F91FF90EF90DF90CF90BF9074
:1011A000AF909F908F900994DF91CF911F910F91F5
:1011B000FF90EF90DF90CF90BF90AF909F908F9077
:1011C0000895EF92FF920F931F93CF93DF9377FDD4
:1011D00032C0DC011896ED91FC916E177F075CF52B
:1011E0002115310541F137FF07C0F90131964E0F46
:1011F0005F1F319521953109DC011A96ED91FC9123
:101200004E175F07C4F4EA01C20FD31FDE01119726
:10121000B7FD11C057FF03C09E0150E040E0AE177C
:10122000BF071CF09F01241B350B7801890121E0C9
:1012300030E00E94B506DF91CF911F910F91FF9092
:10124000EF900895EF92FF920F931F93CF93DF9348
:1012500057FD31C0DC011A96ED91FC914E175F07E6
:1012600054F52115310539F137FF07C0F9013196E1
:101270006E0F7F1F319521953109DC011896ED9194
:10128000FC916E177F07BCF4EB01C20FD31FDE0188
:101290001197B7FD10C077FF03C09E0170E060E0BA
:1012A000AE17BF071CF09F01261B370B780101E02A
:1012B00010E00E94B506DF91CF911F910F91FF9032
:1012C000EF9008958F929F92AF92BF92CF92DF924C
:1012D000EF92FF920F931F93CF93DF934701211556
:1012E000310509F44BC00115110509F447C037FF5A
:1012F00007C0F90131966E0F7F1F31952195310995
:10130000DC011896AD90BC906A157B05BCF517FF03
:1013100007C0F80131964E0F5F1F11950195110915
:10132000DC011A96ED91FC914E175F073CF56B01BD
:10133000C20ED31EE6012197D7FD20C07A01E00E30
:10134000F11ED7011197B7FD19C077FF03C09601B1
:1013500070E060E057FF03C0870150E040E0CA152D
:10136000DB051CF09501261B370BAE17BF071CF0E1
:101370008F01041B150B74010E94B506DF91CF91FC
:101380001F910F91FF90EF90DF90CF90BF90AF90A3
:101390009F908F900895EF92FF920F931F93CF939A
:1013A000DF93EC0177FD22C088859985681779075E
:1013B000ECF457FD1BC08A859B8548175907B4F488
:1013C0007901E881F98102A4F3A5E02D01E010E0A4
:1013D00021E030E0CE010995B701CE01DF91CF9138
:1013E0001F910F91FF90EF900C94B805DF91CF9172
:1013F0001F910F91FF90EF900895CF93DF93EC0131
:101400000E943F068FA987FD06C0EB8DFC8D808171
:101410009AA989238083DF91CF9108950895AF928F
:10142000BF92CF92DF92EF92FF920F931F93CF93D1
:10143000DF93EC01E62E8A01A22E0E943F068FA9BF
:1014400087FD06C0EB8DFC8D80819AA9892380835E
:10145000ED8DFE8D80819CA9892380836E2DCE0128
:101460000E94FD05ED8DFE8D80819BA9892B8083D7
:10147000D12CC12CB12CCA14DB04E4F48DA9780161
:10148000823079F488A9882361F0F8016191719123
:101490007F01CE010E94B805FFEFCF1ADF0A870156
:1014A000EACFFFEFEF1AFF0AF8016491CE010E9424
:1014B000FD05F2CF8FA987FD06C0EB8DFC8D8081E5
:1014C00099A9892B8083DF91CF911F910F91FF9074
:1014D000EF90DF90CF90BF90AF900895FC0187A967
:1014E00087FD06C0A38DB48D9C9181A9892B8C9317
:1014F00008950895FC016370668B8481958126812F
:101500003781613039F0633029F0918780873387E4
:1015100022870895318720879387828708952F92A5
:101520003F924F925F926F927F928F929F92AF9273
:10153000BF92CF92DF92EF92FF920F931F93CF93C0
:10154000DF93CDB7DEB76A970FB6F894DEBF0FBE54
:10155000CDBF9A8F898F7A8369834A01D22E1887EB
:101560000F833701BC2CDC0159962D913C915A9781
:101570002115310509F015C118968D919C91199787
:10158000681779070CF0D7C11A968D919C9148176E
:1015900059070CF0D0C14C2C512CB6E0CB9E600DFD
:1015A000711D11247C876B87161617060CF0C3C1BA
:1015B000EA2DF0E0FA87E98793E0EE0FFF1F9A9596
:1015C000E1F7F88BEF87CF01840F951F18161906E6
:1015D0000CF0B1C1A98DBA8D58968C91811104C0BF
:1015E000BFEABD1508F4D394A98DBA8DED91FC9195
:1015F00011970284F385E02DCD010995B5E0DB9EBE
:10160000C0011124E981FA81FC83EB83312C212C68
:101610009C0129523F4F388F2F8B4A2D50E05E8B13
:101620004D8BEF89F88DE20DF31D44919E828D82E2
:10163000D12CC12C69817A81620D731D7A8B698BE3
:10164000842F90E09C8B8B8BE98DFA8DA081B181EA
:1016500040FF82C0F1E0BF126FC0AF126DC01C9698
:10166000ED91FC912F813885A4014C0D5D1D698998
:101670007A89898D9A8D0995EB89FC89F595E7958D
:101680004E2F5FEFC51AD50A6D817E818D899E89A7
:10169000680F791F7E836D8398E0C916D10481F6A7
:1016A000AFEF2A1A3A0AEB81FC81E40DF51DFC83A9
:1016B000EB83F5E02F16310409F0B3CF2F81388585
:1016C00026153705B9F0A98DBA8DED91FC91B1E0E1
:1016D000BB1257C0AB1255C069817A816B5F7F4FD7
:1016E0000088F189E02D830128E030E0A401898D94
:1016F0009A8D0995A98DBA8DED91FC911197068867
:10170000F789E02DCD016A960FB6F894DEBF0FBEC3
:10171000CDBFDF91CF911F910F91FF90EF90DF90A0
:10172000CF90BF90AF909F908F907F906F905F9081
:101730004F903F902F9009941E96ED91FC91EF8071
:10174000F88409851A8592014D815E816B817C81C7
:10175000898D9A8D099590CF2F813885261537056B
:1017600009F48ACF31E0B31207C0A31205C01C965A
:10177000ED91FC91930178CF1E96ED91FC91730150
:10178000E0CF6B857C85641975090684F785E02DAB
:1017900073010F8518899201A401898D9A8D09958D
:1017A000A9CFF90134969491329745915491D91A61
:1017B000B7E0DB9E400D511D1124F90125913491B4
:1017C0003C8B2B8BFA0125903490FA013296749061
:1017D00031963491398B329664903196449041E041
:1017E0004C1518F04A1508F07FC0662D062C000C29
:1017F000770B7C836B83842D042C000C990B9E83C8
:101800008D83A98DBA8DED91FC9111970284F3859A
:10181000E02DCD010995512CD12CC12CEA2DF0E001
:10182000FA87E9872B2D30E03C872B87A401440DF4
:10183000511D47FC5A95588F4F8B69817A81660DEF
:10184000711D67FC7A957E876D877989C71608F0C8
:1018500051CF2C2D30E04D815E81420F531FA98561
:10186000BA854A9FC0014B9F900D5A9F900D11243D
:10187000FC01E80DF91DF88BEF87852D612C4F8950
:10188000588D420F531F5E8B4D8B671408F050C06C
:1018900044244394480E877041F4C1010196EB89BA
:1018A000FC89E20DF31DD4901C01D7FE19C0A98D4F
:1018B000BA8DED91FC91662D70E0B1E0BB1219C0BC
:1018C000AB1217C02D853E85620F731F0484F5850A
:1018D000E02D2F8138854D895E89898D9A8D0995F6
:1018E000DD0C6394842DD1CF1E821D821C821B824D
:1018F00088CF4B815C81640F751FAB85BC856A9F67
:10190000C0016B9F900D7A9F900D112469817A819F
:10191000680F791F0684F785E02DEF80F88409852C
:101920001A859D014F855889898D9A8D0995D8CF43
:10193000570CC3948ACF6A960FB6F894DEBF0FBED9
:10194000CDBFDF91CF911F910F91FF90EF90DF906E
:10195000CF90BF90AF909F908F907F906F905F904F
:101960004F903F902F9008958F929F92AF92CF9279
:10197000EF92FF920F931F93CF93DF93EC01262FEB
:10198000898D9A8D009709F051C06A30D1F41D8677
:101990001C868D8948E0849F900111248E859F8547
:1019A000820F931F9F878E8781E090E0DF91CF9118
:1019B0001F910F91FF90EF90CF90AF909F908F90DD
:1019C00008956D3089F3CC88AD888F898823C1F064
:1019D0008C859D8536E0C39E800D911D1124488520
:1019E00059854817590764F44E855F851D861C8606
:1019F00038E0A39EC0011124840F951F9F878E8716
:101A0000EA88FB88088919894E855F856C857D8504
:101A1000CE010E948F0A2C898C859D8546E0249FEB
:101A2000800D911D11249D878C87BECF6A3069F48B
:101A30001D861C86FC013896E4912D898E859F8534
:101A4000E29F800D911D1124ADCF6D3009F4ACCF14
:101A5000FC0134963491631708F4A6CF3296E491D2
:101A6000E61708F4A1CFFC01329685909490462F9A
:101A7000431B342F47E0349F800C911C1124F40148
:101A8000329634913196E4913323A9F1EE2399F102
:101A9000CC88F4013596E491AD884F89442301F157
:101AA0000E2E000CFF0BE30FF11DCE9EA001CF9E6A
:101AB000500D11246C857D85460F571F68857985EB
:101AC000641775076CF44E855F851D861C86FC01C6
:101AD0003896E491AE9E400D511D11245F874E87CC
:101AE000EA88FB88088919894E855F856C857D8524
:101AF000CE010E948F0AF4013496E4912C898C85E2
:101B00009D85E29F800D911D11248DCF6F927F9254
:101B10008F929F92AF92BF92CF92DF92EF92FF92FD
:101B20000F931F93CF93DF93EC016B015A0139019F
:101B30004801E881F9810284F385E02D0995E88167
:101B4000F9810288F389E02D87019301A501B6018F
:101B5000CE010995A501480D591D41505109E88153
:101B6000F9810288F389E02D9301B601CE01099530
:101B7000E881F9810088F189E02D9401A501B60181
:101B8000CE010995C60CD71CB60161507109E881D8
:101B9000F9810088F189E02D9401A501CE01099514
:101BA000E881F9810688F789E02DCE01DF91CF9198
:101BB0001F910F91FF90EF90DF90CF90BF90AF906B
:101BC0009F908F907F906F9009946F927F928F92E9
:101BD0009F92AF92BF92CF92DF92EF92FF920F93BC
:101BE0001F93CF93DF935C01EB016A014901380138
:101BF0008701DC01ED91FC916217730719F56416FA
:101C000075062CF0962D872D3A01C92ED82E9601F7
:101C1000261937092F5F3F4F048CF58DE02DA30166
:101C2000BE01C5010995DF91CF911F910F91FF90E2
:101C3000EF90DF90CF90BF90AF909F908F907F906C
:101C40006F9008954615570591F42617370724F02D
:101C5000892D4B01C22FD82F9E01281939092F5FDA
:101C60003F4F068CF78DE02DA601B401DACF028438
:101C7000F385E02D0995D501ED91FC910488F58956
:101C8000E02D83019401A601BE01C5010995D5018E
:101C9000ED91FC910688F789E02DC501DF91CF9188
:101CA0001F910F91FF90EF90DF90CF90BF90AF907A
:101CB0009F908F907F906F900994EF92FF920F9377
:101CC0001F93DC011A960D911C911B9718962D916C
:101CD0003C911997ED91FC9100A0F1A1E02D7B01C1
:101CE00050E040E070E060E009951F910F91FF9097
:101CF000EF9008954F925F926F927F928F929F9292
:101D0000AF92BF92CF92DF92EF92FF920F931F9309
:101D1000CF93DF936C012B015A0139014801DC019B
:101D2000ED91FC910284F385E02D0995E201640CAC
:101D3000751CD601ED91FC91C615D7055CF40088A1
:101D4000F189E02D87019401A501BE01C601099525
:101D50002196EFCF0688F789E02DC601DF91CF915C
:101D60001F910F91FF90EF90DF90CF90BF90AF90B9
:101D70009F908F907F906F905F904F9009948F927B
:101D80009F92AF92BF92CF92DF92EF92FF920F930A
:101D90001F93CF93DF93EC015B014A016901E88156
:101DA000F9810284F385E02D099595012C0D3D1DE7
:101DB00021503109E881F9810488F589E02D780105
:101DC0008401A401B501CE010995E881F981068855
:101DD000F789E02DCE01DF91CF911F910F91FF90F8
:101DE000EF90DF90CF90BF90AF909F908F9009942D
:101DF0008F929F92AF92BF92CF92DF92EF92FF921B
:101E00000F931F93CF93DF93EC015B014A016901AC
:101E10007801E881F9810284F385E02D0995C80CE9
:101E2000D91C860101501109E881F9810488F589DE
:101E3000E02D9501A401B501CE010995E881F98154
:101E40000688F789E02DCE01DF91CF911F910F9188
:101E5000FF90EF90DF90CF90BF90AF909F908F90CA
:101E60000994EF92FF920F931F93DC01ED91FC9187
:101E700000A0F1A1E02D09951F910F91FF90EF9027
:101E800008950F931F93DC01ED91FC91068CF78D63
:101E9000E02D09951F910F9108950F931F93DC0179
:101EA000ED91FC91048CF58DE02D09951F910F911A
:101EB0000895DC01ED91FC910084F185E02D0994F9
:101EC0002F923F924F925F926F927F928F929F924A
:101ED000AF92BF92CF92DF92EF92FF920F931F9338
:101EE000CF93DF9300D000D000D0CDB7DEB73C0158
:101EF0006A013E832D83FC82EB825801A41AB50A45
:101F0000B7FE03C0B194A194B1088D809E80861A5B
:101F1000970A97FE03C09194819491088A149B04B8
:101F20005CF0902F812F0D811E819D838E839C2DCF
:101F30008D2D6B01692F782F0C151D055CF09D818F
:101F40008E817E836D83692F782F902F812F86015C
:101F5000C92ED82E1601201A310A2B012D813E815F
:101F6000421A530A57FE03C051944194510871011B
:101F700037FE03C03FEFE31AF30AF594E7948D812F
:101F80009E81861797075CF5A1E0B0E0BA83A9832C
:101F9000C016D1064CF1D301ED91FC910484F58576
:101FA000E02D2B813C81A8016D817E818A149B04E8
:101FB0001CF04D815E81B801C3010995E418F50854
:101FC000F7FE0AC02D813E8189819A81280F391F31
:101FD0003E832D83E20CF31C0F5F1F4FD9CF2FEFF1
:101FE0003FEF3A832983D4CF26960FB6F894DEBF0D
:101FF0000FBECDBFDF91CF911F910F91FF90EF905A
:10200000DF90CF90BF90AF909F908F907F906F9018
:102010005F904F903F902F900895AF92BF92CF92D4
:10202000DF92EF92FF920F931F93CF93DF93EC0118
:102030005B016A01215031097901E60EF71E01505A
:102040001109040F151F8091060190910701861751
:10205000970739F480910401909105018E159F0531
:10206000A1F06AE2CE010E942A06B501CE010E94CB
:10207000B805B701CE010E94B805B0920701A09241
:102080000601F0920501E092040180910201909115
:1020900003018C159D0539F4809100019091010197
:1020A00080179107A1F06BE2CE010E942A06B601CB
:1020B000CE010E94B805B801CE010E94B805D092A9
:1020C0000301C092020110930101009300016CE230
:1020D000CE01DF91CF911F910F91FF90EF90DF9094
:1020E000CF90BF90AF900C942A06611106C060E2B9
:1020F00020E050E040E00C940F0A61E2F9CF0F932A
:102100001F93CF93DF931F92CDB7DEB78C0163701F
:10211000DC0156966C935697623009F468C06330C0
:1021200009F46AC0613009F456C088E4898380EFFD
:1021300090E019969C938E93189780E491E01B96FB
:102140009C938E931A97C8010E943F06D801D79698
:102150008C91D79787FD09C05B96ED91FC915C97B8
:102160008081D2969C9189238083D8015D96ED91E0
:10217000FC915E978081D4969C918923808366E34D
:10218000C8010E94FD05D8015D96ED91FC915E9716
:102190008081D3969C91D397892B8083D5968C91FF
:1021A000823061F16981C8010E94FD05D801D7968E
:1021B0008C91D79787FD09C05B96ED91FC915C9758
:1021C0008081D1969C91892B80830F90DF91CF9154
:1021D0001F910F91089588E2898380E491E0F801CE
:1021E0009187808780EF90E093878287ACCF88E8E3
:1021F000898380EF90E09DCF88EEEECFF80180A933
:10220000882381F269817A81C8010E94B805CECF06
:10221000089590E080E00895FC0101900020E9F726
:102220003197AF01481B590BBC0189E092E00C9437
:102230004C04CF93DF930E940C11EC018AE491E0EF
:102240000E940C118C0F9D1FDF91CF910895CF92AA
:10225000DF92EF92FF920F931F93CF93DF93CDB74F
:10226000DEB7A1970FB6F894DEBF0FBECDBF9C01BD
:1022700050E040E019A28E010F5D1F4F8AE0C82E8A
:10228000D12CE12CF12CCA01B901A70196010E94C1
:10229000C618605DF80162938F0121153105410573
:1022A000510589F790E080E0309719F0CF010E9446
:1022B0000C11A1960FB6F894DEBF0FBECDBFDF9113
:1022C000CF911F910F91FF90EF90DF90CF900895E5
:1022D0000E940C191F93CF93DF9385ED8093BC0070
:1022E0008091820190918301A0918401B091850138
:1022F0000796A11DB11D23E0B695A79597958795E3
:102300002A95D1F72091BC0024FD03C01092CA0188
:1023100052C040918201509183016091840170917B
:102320008501452B462B472B69F30097A105B10585
:1023300041F02AE22A95F1F700C00197A109B109FD
:10234000E1CF80918101C1E0C0938001882399F1A0
:10235000D091B8001091BA008091BC008A7B809324
:10236000BC0060E082E10E94960360E083E10E948D
:1023700096031092CA01C093CC011092CB0161E088
:1023800082E10E94960361E083E10E9496038091BE
:10239000B9008E7F8093B9008091B9008D7F8093C2
:1023A000B90088E48093B80085E48093BC00109362
:1023B000BA00D093B800DF91CF911F910895CF92CA
:1023C000DF92EF92FF920F931F93CF93DF93EC0175
:1023D0006A017B01C114D104E104F10431F4C12C80
:1023E00042E1D42E4AE7E42EF12C8FA987FD07C0E5
:1023F00061E00E94C40361E08FA90E94960361E03E
:1024000088AD0E94C40361E088AD0E9496038DA947
:102410008111A3C040E052E16AE770E0C416D5061E
:10242000E606F70640F476956795579547958F5FD2
:102430008630A1F787E0982F906A969599A38095AA
:1024400081708AA31BA21CA21DA21EA21FB7F89412
:1024500080917E01811127C0E7E2F6E08491E9E0F6
:10246000F6E09491E82FF0E0EE0FFF1FE952FA4FEB
:10247000A591B491EC91E92321F461E08AE00E94F6
:10248000960361E08AE00E94C4038CB580618CBD34
:102490008CB580648CBD61E08DE00E94C40361E076
:1024A0008BE00E94C40380917E018F5F80937E0148
:1024B0001FBF8EA987FD21C061E00E94C40361E0B7
:1024C0008EA90E94960364E670E080E090E00E948E
:1024D0001A0460E08EA90E94960364E670E080E032
:1024E00090E00E941A0461E08EA90E94960368ECB5
:1024F00070E080E090E00E941A048EA987FF0DC072
:1025000020E050E040E061E0CE010E940F0A66E961
:1025100070E080E090E00E941A0408E610E0C80134
:102520000196F8016491662309F463C00E5F1F4FA2
:10253000FC01F490EF2CE894E7F82E2DA801CE01D1
:102540000E940F0A0E0D111DF7FEE9CF66E970E03B
:1025500080E090E00E941A04E2CF0DE116E0F12C39
:102560008130B9F461E08AA50E94C40360E08AA5C5
:102570000E94960361E08CA50E94C40360E08CA5D4
:102580000E9496038BA587FD94CF60E00E94C40350
:1025900090CFF8018491E82FF0E0EE0FFF1FED5E81
:1025A000F94F859194912F8D38A12817390741F45F
:1025B00061E08F2D0E94C40360E08F2D0E9496037E
:1025C000F3940F5F1F4FF4E1FF12E3CF61E08EA59C
:1025D0000E94C40361E08EA50E9496038FA587FD2B
:1025E00068CF61E00E94C40361E08FA50E9496035A
:1025F00060CF80EF90E09987888780E491E09B87A7
:102600008A87DF91CF911F910F91FF90EF90DF901C
:10261000CF9008951F920F920FB60F9211242F930F
:102620003F938F939F93AF93BF93809101029091BB
:102630000202A0910302B09104023091000223E053
:10264000230F2D3758F50196A11DB11D20930002CF
:102650008093010290930202A0930302B0930402BC
:102660008091050290910602A0910702B0910802A4
:102670000196A11DB11D8093050290930602A093BF
:102680000702B0930802BF91AF919F918F913F9144
:102690002F910F900FBE0F901F90189526E8230FD3
:1026A0000296A11DB11DD2CF1F920F920FB60F92AD
:1026B00011242F933F934F935F936F937F938F9347
:1026C0009F93AF93BF93EF93FF9389E092E00E94B3
:1026D000CA04FF91EF91BF91AF919F918F917F912C
:1026E0006F915F914F913F912F910F900FBE0F907F
:1026F0001F9018951F920F920FB60F9211242F93CF
:102700008F939F93EF93FF93E0911902F0911A0238
:102710008081E0911F02F091200282FD1BC0908118
:10272000809122028F5F8F7320912302821741F0E4
:10273000E0912202F0E0E75FFD4F958F8093220247
:10274000FF91EF919F918F912F910F900FBE0F905E
:102750001F9018958081F4CF1F920F920FB60F92A1
:1027600011242F933F934F935F936F937F938F9396
:102770009F93AF93BF93EF93FF938091B900887FAE
:10278000803609F44AC0F0F5883209F4A5C018F57E
:10279000803109F499C0B8F4882309F4F5C0883071
:1027A00009F492C0FF91EF91BF91AF919F918F91EA
:1027B0007F916F915F914F913F912F910F900FBE3D
:1027C0000F901F901895883109F486C0803251F718
:1027D0008093C90114C0803409F49BC040F4803355
:1027E000B9F38833F9F68093C90185ECAEC0803522
:1027F00009F483C0883509F494C0883499F60E949E
:102800006A11D0CF883909F48AC038F5883729F0A1
:1028100050F4883611F0803729F683E08093CA019E
:102820001092C80155C0883809F479C0803919F070
:10283000803809F0B7CF8091C801803208F06FC0AE
:10284000E091C80181E08E0F8093C8018091BB00A8
:10285000F0E0E855FE4F80833BC0803B39F0D0F478
:10286000803A09F477C0883A09F09CCF84E08093DD
:10287000CA011092A7011092A601F0E0E0E00995CC
:102880008091A60181110FC081E08093A601109272
:10289000860109C0803C09F4A8CF883C09F4A5CF83
:1028A000883B09F07FCFE091A70181E08E0F8093F4
:1028B000A701F0E0EA57FE4F80818093BB00909122
:1028C000A7018091A60129C08091EF018093BB00F0
:1028D00085EC8093BC0066CF9091EE018091ED0174
:1028E000981758F5E091EE0181E08E0F8093EE018C
:1028F000F0E0E353FE4F8081E9CFE091EE0181E00B
:102900008E0F8093EE018091BB00F0E0E353FE4F09
:1029100080839091EE018091ED019817C8F285E8CF
:10292000D8CFE091EE0181E08E0F8093EE0180918F
:10293000BB00F0E0E353FE4F80838091CC01811116
:102940005ECF81E08093CB0184EA8093BC0010923B
:10295000CA0128CF85EC8093BC001092CA018091F7
:10296000C801803230F4E091C801F0E0E855FE4F34
:1029700010826091C80170E088EA91E0F0E0E0E048
:1029800009951092C8010ECF1092C90138CFE9E025
:10299000F2E01382128288EE93E0A0E0B0E084833C
:1029A0009583A683B7838CE091E09183808385EC47
:1029B00090E09587848784EC90E09787868780EC09
:1029C00090E0918B808B81EC90E0938B828B82ECFA
:1029D00090E0958B848B86EC90E0978B868B118EA4
:1029E000128E138E148EA7EAB2E013961C921E92DA
:1029F000129720EF30E015963C932E93149780E4C5
:102A000091E017969C938E93169719963C932E936C
:102A100018971B969C938E931A9756961C925697CE
:102A20001D961C921E921C971F961C921E921E971A
:102A300081E055968C93559754968C9354972FEF2D
:102A40003FEF53963C932E93529751963C932E937F
:102A5000509757968C93579758961C9258975A961A
:102A60001C921E925997D5961C92D59788E0D696BF
:102A70008C93D6978AE0D7968C93D79789E0D8968F
:102A80008C93D897DA961C921E92D997DC961C925A
:102A90001E92DB97DD961C92DD97DE961C92DE97E8
:102AA0001092E6021092E7021092E8021092E902F8
:102AB00086EA92E090969C938E935F97E6E2F6E02A
:102AC000E491F0E0EE0FFF1FED5EF94F85919491D8
:102AD0005E969C938E935D97E8E0F6E08491D396A2
:102AE0008C93D397E7E2F6E0E491F0E0EE0FFF1F5E
:102AF000ED5EF94F259134915C963C932E935B9754
:102B0000E9E0F6E0E491D196EC93D197E095D29686
:102B1000EC93D297E82FE095D496EC93D4978EE17E
:102B200091E08D939C930895789484B5826084BDE0
:102B300084B5816084BD85B5826085BD85B58160C1
:102B400085BD80916E00816080936E00109281003F
:102B500080918100826080938100809181008160FA
:102B600080938100809180008160809380008091BB
:102B7000B10084608093B1008091B0008160809347
:102B8000B00080917A00846080937A0080917A000E
:102B9000826080937A0080917A00816080937A00CD
:102BA00080917A00806880937A001092C10060E082
:102BB0008EE00E94C40360E08FE00E94C40360E0E6
:102BC00080E10E94C40360E081E10E94C40360E0F0
:102BD00082E10E94C40360E083E10E94C40360E0DC
:102BE00082E00E94C40360E083E00E94C40360E0CE
:102BF00084E00E94C40360E085E00E94C40360E0BA
:102C000086E00E94C40360E087E00E94C403E09174
:102C10001902F0911A0282E08083E0911502F0918E
:102C200016021082E0911702F09118028FEC808357
:102C300010922102E0911D02F0911E0286E0808335
:102C4000E0911B02F0911C02808180618083E09101
:102C50001B02F0911C02808188608083E0911B023E
:102C6000F0911C02808180688083E0911B02F091CA
:102C70001C0280818F7D80838DE491E00E94191178
:102C800040E050E0BA0187EA92E00E94DF116EE175
:102C900070E080E090E00E941A048FE591E00E94CD
:102CA0001911A7E0CA2ED12CB4E19B2EC0E0AC2EA6
:102CB000C0E0BC2E8EE00E946D037C018FE00E947C
:102CC0006D03880F991FE80EF91E80E10E946D03C5
:102CD000EC0181E10E946D038C0182E10E946D0391
:102CE000880F991F080F191F83E10E946D03880F39
:102CF000991F880F991F800F911F9093FD0180935A
:102D0000FC0182E00E946D038C0183E00E946D0350
:102D1000880F991F080F191F84E00E946D03880F08
:102D2000991F880F991F800F911F9093FB0180932B
:102D3000FA0185E00E946D038C0186E00E946D031C
:102D4000880F991F080F191F87E00E946D03CC0F91
:102D5000DD1FCC0FDD1FCE0DDF1D96012C1B3D0BA3
:102D60003093FF012093FE01880F991F880F991F50
:102D7000080F191FC601801B910B9093F9018093D6
:102D8000F8018AE691E00E940C118091FE01909179
:102D9000FF010E9427118CE691E00E940C118091A6
:102DA000FC019091FD010E9427118EE691E00E94A6
:102DB0000C118091FA019091FB010E94271180E78C
:102DC00091E00E940C118091F8019091F9010E940C
:102DD00027118AE491E00E940C116091F601709134
:102DE000F7016335710538F08091F4019091F50198
:102DF0008F399105E0F44091F0015091F1018091FB
:102E0000F2019091F301843D910518F04E36510581
:102E100070F41092B4021092B3021092B6021092A3
:102E2000B5022FE130E087EA92E00E9465068091CA
:102E3000F6019091F7018235910538F48091F40103
:102E40009091F5018E39910500F14091F00150917A
:102E5000F1018091F2019091F301843D910518F008
:102E60004E36510590F41092B4021092B3021092B3
:102E7000B6021092B5026091F4017091F5012FE154
:102E800030E087EA92E00E9465066091F601709159
:102E9000F7016335710538F08091F4019091F501E7
:102EA0008F399105E0F44091F2015091F301433DD7
:102EB000510538F48091F0019091F1018D36910522
:102EC00070F01092B4021092B3021092B6021092F7
:102ED000B5022FE130E087EA92E00E94650680911A
:102EE000F6019091F7018235910538F48091F40153
:102EF0009091F5018E39910500F14091F2015091C8
:102F0000F301433D510538F48091F0019091F101B6
:102F10008D36910590F01092B4021092B302109287
:102F2000B6021092B5026091F4017091F5012FE1A3
:102F300030E087EA92E00E9465064091FA015091E4
:102F4000FB012FE0249FC001259F900D11240796BF
:102F50009093F7018093F6014091F8015091F901A7
:102F6000249FC001259F900D112481589F4F90935D
:102F7000F5018093F4012091FC013091FD01929EB6
:102F8000C001939E900D11240A969093F1018093B5
:102F9000F0012091FE013091FF01929EC001939EAD
:102FA000900D112486559F4F9093F3018093F20169
:102FB00082E791E00E940C118091F6019091F70157
:102FC0000E9427118AE791E00E940C118091F40180
:102FD0009091F5010E9427118AE791E00E940C115F
:102FE0008091F0019091F1010E9427118AE791E010
:102FF0000E940C118091F2019091F3010E9427111F
:103000008CE791E00E9419116091F6017091F7012F
:103010006335710538F08091F4019091F5018F3995
:103020009105E0F44091F0015091F1018091F2019D
:103030009091F301843D910518F04E36510570F4DE
:103040001092B4021092B3021092B6021092B5021E
:1030500020E038EF87EA92E00E9465068091F60151
:103060009091F7018235910538F48091F4019091A7
:10307000F5018E39910500F14091F0015091F10177
:103080008091F2019091F301843D910518F04E3644
:10309000510590F41092B4021092B3021092B6024D
:1030A0001092B5026091F4017091F50120E038EFC3
:1030B00087EA92E00E9465066091F6017091F7013F
:1030C0006335710538F08091F4019091F5018F39E5
:1030D0009105E0F44091F2015091F301433D510517
:1030E00038F48091F0019091F1018D36910570F0E6
:1030F0001092B4021092B3021092B6021092B5026E
:1031000020E038EF87EA92E00E9465068091F601A0
:103110009091F7018235910538F48091F4019091F6
:10312000F5018E39910500F14091F2015091F301C2
:10313000433D510538F48091F0019091F1018D36B5
:10314000910590F01092B4021092B3021092B60260
:103150001092B5026091F4017091F50120E038EF12
:1031600087EA92E00E9465066EE170E080E090E000
:103170000E941A04A114B10409F49CCD0E94B60463
:10318000882309F497CD0E94000094CDA1E21A2E65
:10319000AA1BBB1BFD010DC0AA1FBB1FEE1FFF1FFB
:1031A000A217B307E407F50720F0A21BB30BE40B4B
:1031B000F50B661F771F881F991F1A9469F7609592
:1031C0007095809590959B01AC01BD01CF0108954C
:1031D0000E94F018332312F48A1B9B0B0C940119E4
:1031E000A29FB001B39FC001A39F700D811D112448
:1031F000911DB29F700D811D1124911D08950E9493
:10320000F018B7FF0895821B930B0895EE0FFF1F70
:103210000590F491E02D099481E090E0F8940C94ED
:063220001119F894FFCF24
:10322600FFFFFFFFFFFFFFFF00000000EC044C0460
:1032360079043905AA0488049C0400000000B40C33
:103246004C04091108116506FD09CB096209E1085C
:103256002209600F6E0A7F1075107307E407550880
:103266005D0EE50D860DDF110D100D0A0048656C2B
:103276006D657420666F7220646561667473004CB8
:10328600434420626567616E2E004C005200460082
:0E3296004200506F696E747328002C002900EE
:00000001FF
